:100000000C9478050C94A0050C94A0050C94A00504
:100010000C94A0050C94A0050C94A0050C94A005CC
:100020000C94A0050C94A0050C94A0050C94A005BC
:100030000C94A0050C94A0050C94A0050C94A005AC
:100040000C94D2100C94A0050C94A0050C94A0055F
:100050000C94A0050C94A0050C94A0050C94A0058C
:100060000C94A20E0C94A005A877A6E0F7435A358D
:1000700085E272978FB71A6287380D67C7BE4F3E09
:100080002076378F68B7A9263F2B10E3307E900E7D
:10009000850A70510386400D4FEB3ECCD18735BDAC
:1000A000F50B5ED0F8F2D5E26C310CADFC21C378D3
:1000B000C106C24C55E64A3448111EDAE71A84A03C
:1000C00096A7E37FAF639CFA235B79C89EBAB2C957
:1000D00022124BB3A1B63249A2E189391066C50795
:1000E0008F54EA91CA3FF919F0D746BC281B61E842
:1000F0002F6AAE9DF64E0914774DDB1F2E7B7CF1E7
:1001000043A300B8138C85B9297588FDD2561C50BD
:100110009741E53B60B5C064EE98D62D25A4AACDE5
:100120007DA883C6ABBE4499263CCE9FBFD3CB7679
:100130007A7E82018A9A801D0EB05CD43862F430D7
:10014000E08E53B70257ACA6520A6D92651724335E
:10015000457274B1B4F75DED2CFF47375A90BBDFA1
:100160002A165995D9C4276773C768FEA5DD6B5F4A
:1001700093D8EC053A8D6EFB3DA96936F394DEEF1A
:10018000156F8B9B080FDC81182004E471CFE92BDD
:10019000425801A0A962D63F85A7B6D4FA156617C2
:1001A00009BD5D14342659729154064FF8B05B7442
:1001B00093998CF245CDEA4EAD104AE5CAEEDFC602
:1001C0006F9F888E02CC08A877946D21B128E439FE
:1001D0007996607181162EE678B9C4469A42AEB718
:1001E0007C43B3221A86C2323D2D9CD229E9639BFF
:1001F000D131385E1E3641BB03182B3EBF6861FC0F
:1002000052C0DEE00A58135A00BE1C900E5312FD75
:10021000E26EBACE2427447F87A3A1D55040E3F9EC
:1002200083F7C7A235C8DB19AB2F1125ED339E55D7
:10023000E148AF7384DA2AAA51EB9D95B2CBE770FF
:1002400080FE4C6504EFC5F1C33AB4F55F2389DD48
:1002500030A58BD3F6DC4D64D7F08FEC56375CA419
:100260000D07768A2C0BB5D8C11FE83BF44B1B4712
:100270006C49677B92CF757E20D97D3C977AD005FB
:100280006B0F1DFB8298578DF36ABCACC9A6FFB8F3
:10029000690C4C4D72075A49338DA2AB463D630D34
:1002A000A097FFF0F5FAC0E9DB62E4E17443DC8675
:1002B000182937F406E2ED6F90481E2D1DEA73945D
:1002C00054DF25F64727D91177C9841C5B5C51811F
:1002D000A6223E2496C88AEC827C09B8454A57BBC0
:1002E0002F50758E61708C6CAFD0FDB41BAEDEFEEE
:1002F0003BB536BD55010E9C41565FB3260383BA0C
:10030000134BCAC50AF860A5B9C7C39832FB12F9E6
:10031000A792AA68F3787E05202102E8BFF2B059BF
:100320008FD2CB876515F11AB230ADEE58A38B662C
:100330001F2CD75D1985A8E6D36BA10C91936A5E3B
:100340000B79E3DD004F3C896E7169A9AC40E599FA
:1003500028C6314E7ACD089E7DEF17FC88D8A46D53
:100360004495D1B7D49BBE2A34642BCF2EEB38CE24
:1003700023E03A3FF77B9F1053BC526716E7807625
:1003800004C4B6C1C27F9ADAD53942149DB10F3583
:10039000D6CCB9DA380CA29C091F06B1B6FD1A6991
:1003A0002330C4DE01D1F45829371C7DD5BFFFBDF1
:1003B000C8C9CF65BE7B7897986708B32657F7FA08
:1003C00040AD8E75A67CDB918B5199D4177A908DB8
:1003D000CE63CB4EA0AB183A5B507F2174C1BBB843
:1003E000B7BA0B359531599A4D04071E5A7613F357
:1003F0007183D08603A83942AA28E6E4D85DD3D019
:100400006E6F96FB5EBC56C25F859BE7AFD23B84A6
:100410006AA753C54449A5F936723D2CD91BA1F5ED
:100420004F939D68474116CA2A4CA387D6E5192EDB
:1004300077156D70C0DFB20046EDC66C4360922D3B
:10044000A922458F3455AEA40A6632E0DC02ACE83E
:10045000208C89624AFEEEC3E33CF17905E9F62778
:1004600033CCF29E11817E80108A829F480DD7B4D2
:10047000FC2FB5C7DD88146B2B54EA1D945CB0EFDC
:100480001224CDEBE1E264733F0E5261253EF80F7A
:100490004BECC00030F602493D106E20C9A62FFE7D
:1004A0002C2B752E4526AB48A980FC04CCD3B5BABD
:1004B000A338317D01D9A77B96B663694EF7DEE09C
:1004C00078CA50AA41916588E42185DA3A27BE1C92
:1004D0003E425E17527F1F89246F8F5C67740E1235
:1004E000878DE934ED73C4F8615B05DF594C97796A
:1004F0008318A45595EBBD53F5F15766469FB2811D
:100500000951862216DD23937629C2D71DD4BF3622
:100510003FEA4B1132B9625460D66D439A0D929CFA
:10052000B0EF586C9D772D70FAF3B30BE2407EF478
:100530008AE58C3C5671D164E1820ACB131590ECAC
:100540000399AF145D0F334A94A5A8351BE36AC61F
:1005500028FF4DE72584AC08AEC5A22AB8370C7A2F
:10056000A0C3CEAD061A9E8BFBD5D0C11ED0B49BC6
:10057000B144F247C768CF72BB4F5AF9DC6BDBD28C
:10058000E87CC8EE98A1E6D839075FFD8E19B73B25
:10059000BCCD7CE38173B211BF6F2098FE7596EFDE
:1005A0006CDA50E109725445BA34805BED3E532C4D
:1005B00087A457F3333F3CB767B4A325604F076B5D
:1005C0001B47150FE40AEAD1327836498D4BD2BC6D
:1005D000A5DC1D0D4DCD9A825FFC9465BEE2F4C989
:1005E0001E44CB9E0C64712663B314E840708A0EDF
:1005F00019426DAC88105CDF41A9ADE5FB74CCD528
:10060000068E5986CE1F3D76E08FB977277BA6D818
:1006100029D3ECB813F7FAC3516ADE4A5AEBC28BFE
:10062000234892CF62A899F8D02E856143C8BDF0C7
:100630000593CA4EF17D30FDC469662F08B152F9A9
:1006400021E67A2BDD3984FFC091D637D47F2D9BEC
:100650005DA13B6EB5C54604F590EE7E831C035646
:10066000B6AA0017013555790B12BB1A31E70228DB
:1006700016C1F6A2DB189C89683897ABC72AD73A0F
:10068000F2C6244CB058A0225E9DD9A7E9AEAF8C2B
:10069000959F28B720D7B030C30919C067D6003C52
:1006A0007EE7E9F4085AF8B82E05A6259E5CD81511
:1006B0000DE1F611546BCD2146665E84AD063829F6
:1006C00044C5A2CEF1AAC1407186B5EFFC36A8CBD5
:1006D0000A48274564A3AF8CB2C69F0789DC17D3AD
:1006E0004979FBFE1DD0B9884352BC01782B7D941B
:1006F000C70EDEA5D59BCCF7617AC274813903ABF6
:1007000096A037BD2D72753FC9D48E6FF98DED62FD
:10071000DB1CDF04AC1B6C144B63D0BFB482EC7BDE
:100720001A5992D21060B63D5FE6806E70C4F23501
:10073000D97CEEE541A45B50DDBB4CF31F9D5D57BA
:10074000555197E358424D9C73BAC877316926AE2C
:10075000EA8ADA22B38756FA930B341633E8E45365
:10076000BEA9B13A3EF5906ACF3B12FD8F9AA747DA
:100770009199EB0F24FF2318854E7F0CE0A1D2D175
:100780002C2A4A024F1E95688B98836D76CA653273
:10079000132FC3829AA4BA8160373435FC80A851E4
:1007A0006567ED305F10D34A272F13B92AD2CCE109
:1007B000EFAEEBBEF4BDCF43B3C58884B7DD39409F
:1007C000CE486D9B72617EE7A14E532E773BE2C906
:1007D00036221B6E73B103B24C87A9D44D0FD815C6
:1007E0006CAA18F649575DFB7A149463A011B09E69
:1007F000DE0546C8EE47DBDC24899C919729E97B1E
:10080000C1071EB8FDFEACC662984FF179E0E86BF7
:100810007856B68D045086CA6F20E6EAE576171C36
:10082000747FBC0D2C85F76696E48B753F4BD938E9
:10083000AF7CDA0B832D3132A2F51D594145BF3C07
:100840001FF8F98AD016256912999D2195AB01A64A
:10085000D7B5C07DFF580E3A92D155E3089FD63EDA
:10086000528EFAA3C702CDDF8F64198CF3A70C5EFA
:100870000A6A09F0935B42C20623EC71ADB4CBBBAC
:100880007028D51A5C33685A004490A5C4263D2BC5
:10089000F25496ADDA1FED33E18169080D0ADB35BC
:1008A000779A64D1FC78AA1BD067A0DDFA6C6371DB
:1008B0000584176A894F667FC65055926FBDE7D28F
:1008C00040728DBBEC06428AE4889D7E7A822713B3
:1008D000411AAFC8A476B4C2FE6D1CD96130B37C96
:1008E000EAF7290FF23B51C1DE5FE52A2F990B5D34
:1008F000A32B4AAB95A5D35856EE283100CC15460C
:10090000CAE686383C65F5E39FD65B094983702DBE
:1009100053A97DE2C4AC8E5EB825F4B957F3F168F3
:1009200047B2A25920CE34795C900E1EBED5222348
:10093000B1C91862162E913E078FD83F933DD49BC4
:10094000DF8521FB117497C7D7DC4C194598E94323
:10095000024BBCC3049C6BF07552A726F6C5BACFF8
:10096000B0B7AE5AA1BF038B80126E0CEBF9C04436
:1009700024EF10F8A88CE87BFF9E2CCD603687B55D
:1009800094A654733A144E011DB6FD37484D39CB29
:10099000E032000000000000000000000000000045
:1009A0000000000000000000000000000000000047
:1009B0000000000000000000000000000000000037
:1009C0000000000000000000000000000000000027
:1009D0000000000000000000000000000000000017
:1009E0000000000000000000000000000000000007
:1009F00000000000000000000000000000000000F7
:100A000000000000000000000000000000000000E6
:100A100000000000000000000000000000000000D6
:100A200000000000000000000000000000000000C6
:100A300000000000000000000000000000000000B6
:100A400000000000000000000000000000000000A6
:100A50000000000000000000000000000000000096
:100A60000000000000000000000000000000000086
:100A70000000000000000000000000000000000076
:100A80000000000000000000000000000000000066
:100A9000000000000000240027002A0000000000E1
:100AA000250028002B00000000002300260029005C
:100AB0000404040404040404020202020202030304
:100AC000030303030102040810204080010204080C
:100AD000102001020408102000000007000201009D
:100AE00000030406000000000000000085086910F3
:100AF00011241FBECFEFD8E0DEBFCDBF11E0A0E0D4
:100B0000B1E0E8E2F5E202C005900D92AE31B10726
:100B1000D9F713E0AEE1B1E001C01D92A633B107F1
:100B2000E1F71AE0C0EFDAE004C02297FE010E946C
:100B30008E12CC3ED107C9F70E9425070C94921261
:100B40000C940000FB01DC0104C08D910190801920
:100B500021F441505040C8F7881B990B0895DC01DF
:100B600001C06D9341505040E0F70895CF92DF925D
:100B7000EF92FF920F931F93CF93DF93EC016B01E2
:100B80008C819D8197FF03C020E030E03CC08A81CA
:100B900060E00E94E911888160E00E94E9118A8189
:100BA00061E00E94E91181E090E00E947F118A815A
:100BB00060E00E94E9118C810E943D127C0101E0FD
:100BC00010E019C0888161E00E94E91181E090E0A5
:100BD0000E947F11888160E00E94E9118C810E944F
:100BE0003D12002E02C0880F991F0A94E2F7E82AEE
:100BF000F92A0F5F1F4F0C151D0524F38E2D8095CC
:100C00008E83282F30E0C901DF91CF911F910F9182
:100C1000FF90EF90DF90CF9008950F931F938C017A
:100C2000862FF80160837183538342833583248345
:100C3000168261E00E94C311F801828161E00E9486
:100C4000C311F801848160E00E94C3111F910F91CC
:100C500008956FEF7FEF4FEF5FEF2FEF3FEF0E94B1
:100C60000D06089552985398549855985698579A47
:100C700020985A9A5B9A5C9A5D9A5E9A5F9A289A33
:100C800008952F923F924F925F926F927F928F9230
:100C90009F92AF92BF92CF92DF92EF92FF920F930B
:100CA0001F93DF93CF9300D00F92CDB7DEB75F9A3B
:100CB0008EE090E00E947F1149B149834B9B03C0B5
:100CC0002224332403C002E0202E312C4C9B03C08D
:100CD0004424552403C014E0412E512C4D9B03C0E5
:100CE0006624772403C0B8E06B2E712C4E9B03C0A2
:100CF0001B821A8204C080E190E09B838A83C3B088
:100D00005F988EE090E00E947F114E9B03C0882484
:100D1000992403C0A0E48A2E912CD3B05F9A8EE070
:100D200090E00E947F115F988EE090E00E947F111A
:100D30005F9A8EE090E00E947F1109B14B9B03C047
:100D400020E030E002C022E030E04C9B03C080E0B5
:100D500090E002C084E090E04D9B03C0AA24BB2435
:100D600003C0F8E0AF2EB12C10E01695079516954C
:100D7000079571E0E72EF12C0E251F2501701070EC
:100D8000022B132B082B192B5F988EE090E00E940A
:100D90007F115F9A8EE090E00E947F115F9891E052
:100DA000C92281E0C8262C2D30E065E0220F331FD8
:100DB0006A95E1F7D822D8268D2D90E09695982F48
:100DC000882797958795282B392BE9818E2F90E0DE
:100DD00096958795969587958E259F25817090701D
:100DE000282B392B2229332924293529262937294B
:100DF0008A819B81822B932B9B838A8362E070E0A4
:100E000080E090E00E9426112A813B81282939291F
:100E10000A291B29102F0027202B312BC9010F90E5
:100E20000F900F90CF91DF911F910F91FF90EF9056
:100E3000DF90CF90BF90AF909F908F907F906F90FA
:100E40005F904F903F902F9008950E9489110E94CB
:100E5000C70A0E947D08FDCF4F925F926F927F92EA
:100E60008F929F92AF92BF92CF92DF92EF92FF92BA
:100E70000F931F93DF93CF93CDB7DEB7DC013B0118
:100E800029016D8D7E8DE8A12F8D30E0C90188711B
:100E90009070F3E0880F991FFA95E1F76F73682B54
:100EA0006C93C9018670907065E0880F991F6A95F0
:100EB000E1F77F73782B11967C931197EF7136953C
:100EC000322F222737952795E22B1296EC93129713
:100ED00013961C921397452B11F470E001C070E833
:100EE000012B11F420E001C020E48B899C89892B1F
:100EF00011F460E001C060E28F89988D892B11F4B4
:100F000050E001C050E1898D9A8D892B11F440E0A9
:100F100001C044E08D899E89892B11F430E001C025
:100F200032E08B8D9C8D892B11F480E001C088E02C
:100F3000272B262B252B242B232B282B14962C9365
:100F40001497CD2811F420E001C020E4892811F481
:100F500070E001C070E2EF2811F460E001C060E1D0
:100F6000AB2811F450E001C058E0672811F440E0CC
:100F700001C042E089A19AA1892B11F430E001C09F
:100F800030E88BA19CA1892B11F490E001C094E082
:100F900080E0452809F081E0282B272B262B252BE4
:100FA000242B232B292B14968C911497809514961F
:100FB0008C931497822F809515968C93CF91DF9107
:100FC0001F910F91FF90EF90DF90CF90BF90AF9067
:100FD0009F908F907F906F905F904F9008956F9249
:100FE0007F928F929F92AF92BF92CF92DF92EF92B9
:100FF000FF920F931F93782E692E8DB79EB742975D
:101000000FB6F8949EBF0FBE8DBFEDB7FEB73196F9
:10101000609124027091250240912602509127028E
:10102000209128023091290200912A0210912B026E
:10103000E0902C02F0902D02C0902E02D0902F0252
:10104000A0903002B0903102809032029090330232
:101050008091340290913502ADB7BEB712969C9341
:101060008E931197809136029091370293838283F9
:1010700080913802909139029583848380913A025D
:1010800090913B029783868380913C0290913D0230
:101090009187808780914202828780914302838773
:1010A00080914402848780914502858780913E0229
:1010B00090913F02978786878091400290914102EC
:1010C000918B808B872D962D0E942C078DB79EB714
:1010D00042960FB6F8949EBF0FBE8DBF872D962DFA
:1010E0001F910F91FF90EF90DF90CF90BF90AF9046
:1010F0009F908F907F906F900895E0912202F091E1
:101100002302309709F0099508958091020190E03B
:1011100095958795959587958093420280910501D5
:1011200090E095958795959587958093430280915A
:10113000080190E0B3E095958795BA95E1F7809323
:10114000440280910B0190E0A3E095958795AA95C4
:10115000E1F7809345020895FF920F931F93DF9369
:10116000CF93CDB7DEB727970FB6F894DEBF0FBE8B
:10117000CDBF8E010F5F1F4FC8010E942906C80115
:1011800062E070E043E050E024E030E00E940D06B1
:10119000F02E012F8F2D902F60E170E00E94B60598
:1011A0009C012074307030932502209324029C010E
:1011B0002078307030932702209326029C01207102
:1011C000307030932902209328029C0120723070E5
:1011D00030932B0220932A029C01217030703093AF
:1011E0002F0220932E029C01227030703093330224
:1011F00020933202AC0144705070509339024093F6
:101200003802BC016870707070933B0260933A02C0
:101210009C012070327030932D0220932C029C018F
:101220002070347030933102209330029C01207082
:10123000387030933502209334028070907190930F
:10124000370280933602452B11F480E004C080E021
:10125000672B09F081E080933C0210923D029ACF07
:10126000FF920F931F93DF93CF93CDB7DEB72797EE
:101270000FB6F894DEBF0FBECDBF8E010F5F1F4FBC
:10128000C8010E942906C80162E070E043E050E016
:1012900024E030E00E940D06F02E012F8F2D902FBC
:1012A00068E070E00E94B6059C01207430703093B5
:1012B0002502209324029C0120783070309327026D
:1012C000209326029C0120713070309329022093D4
:1012D00028029C012072307030932B0220932A0246
:1012E0009C012170307030932D0220932C029C01C0
:1012F0002270307030932F0220932E029C012470B4
:101300003070309339022093380288709070909337
:101310003B0280933A02232B11F420E004C020E02A
:10132000892B09F021E020933C0210923D02B6CFB8
:101330000E9432060E9441069C0124703070309356
:101340002502209324029C012870307030932702DC
:1013500020932602AC0141705070509329024093B3
:1013600028029C012270307030932B0220932A02B5
:101370009C012072307030932D0220932C029C012E
:101380002071307030932F0220932E029C01207028
:10139000327030933102209330029C0120743070FF
:1013A00030933302209332029C01207034703093CA
:1013B0003502209334029C01207031703093370243
:1013C000209336029C0120703870309339022093AC
:1013D00038028078907090933B0280933A02452BBC
:1013E00011F420E004C020E0892B09F021E02093D3
:1013F0003C0210923D029ECF0F931F9380911001EB
:101400000E943D128C01809112010E943D12000F3A
:10141000111F082B192BC8011F910F9108958F924E
:101420009F92AF92BF92CF92DF92EF92FF920F9373
:101430001F9382E291E06FEF70E040E051E00E9484
:10144000AF052AEF30E0F901EE5DFE4FD901A35E52
:10145000BF4F8C9180832F5F3F4F81E02030380752
:1014600091F7A0E0B1E0FD0190E08191980F81E05B
:10147000EE30F807D1F7892F8B5A808396559183E8
:10148000E2E4F1E08D918083808B319691E0A03190
:10149000B907C1F7ADB7BEB752970FB6F894BEBF44
:1014A0000FBEADBFEDB7FEB731968091140190919C
:1014B000150112961C921E921197138212821582A8
:1014C000148217821682118610862091020130E064
:1014D000359527953595279522872091050130E090
:1014E000359527953595279523872091080130E07C
:1014F00063E0359527956A95E1F7248720910B01E4
:1015000030E053E0359527955A95E1F72587178602
:101510001686118A108A60E070E040E050E020E01A
:1015200030E000E010E0EE24FF24CC24DD24AA24E7
:10153000BB24882499240E942C0785E580931202FD
:1015400010921D028DB79EB742960FB6F8949EBFBB
:101550000FBE8DBF8CE293E062E570E00E94CF1079
:101560008CE293E06FEC7DE00E945F108CE293E0F0
:101570006FE37BE00E9464101F910F91FF90EF904A
:10158000DF90CF90BF90AF909F908F900895809103
:10159000100160E00E94C3118091100161E00E947F
:1015A000E9118091120160E00E94C3118091120143
:1015B00061E00E94E9118FEE97E090932101809302
:1015C00020010E940F0A0E94FC098230910541F01F
:1015D0008330910561F0019781F480E399E002C0C6
:1015E00088E999E0909323028093220208958CEA7F
:1015F00098E0909323028093220208950F931F9303
:10160000CF93DF938C01362F942F809112028A3A68
:1016100059F580914802882339F140E050E0C62F07
:10162000D0E0692F70E018C0FA01E60FF71FE770ED
:10163000F070DF01A75BBD4F2C91EF5AFD4F9081F9
:10164000DA01A75ABD4FF801E40FF51F8081821B14
:1016500089278C934F5F5F4F4C175D072CF38CE20B
:1016600093E069E572E003C08CE293E0B801432F98
:101670000E948E10DF91CF911F910F9108952091BC
:101680004602222319F02A3F01F518C08091140167
:101690009091150166E040E00E94FE0AE091200171
:1016A000F0912101309759F1809114019091150129
:1016B0000995909315018093140108958CE192E0AF
:1016C00066E04AEF0E94FE0A089580911601821793
:1016D00031F480914702885F8093470204C02093D1
:1016E00016011092470240914702822F90E0840F2A
:1016F000911D420F8E5D9E4F68E00E94FE0A089584
:101700002F923F924F925F926F927F928F929F9211
:10171000AF92BF92CF92DF92EF92FF920F931F93FF
:10172000DF93CF93CDB7DEB766970FB6F894DEBFE1
:101730000FBECDBF6624772458E0452E512CD1C072
:10174000FC01E20FF31FE859FF4FE491A1E0B0E084
:10175000AC0FBD1FA80FB91FEC9301968630910501
:1017600079F780E090E0FC01EF59FD4FE081F0E077
:10177000EE56FF4FE491ADE0B0E0AC0FBD1FA80FF7
:10178000B91FEC9301968A30910569F7AA88CF8436
:1017900029812A2530E04C2D477050E09E88B98879
:1017A000C201841B950B190102C0220C331C8A95BF
:1017B000E2F7C10102C0359527954A95E2F7822BE1
:1017C00089198B258F83EE84DD842A812E2530E0D4
:1017D0004D2D477050E0AC89C201841B950BB901B7
:1017E00002C0660F771F8A95E2F7CB0102C03595DC
:1017F00027954A95E2F7822B8A198A278887EB89F1
:101800002B812E2730E00D89077010E0B201601B9C
:10181000710BC901062E02C0880F991F0A94E2F7C6
:10182000002E02C0359527950A94E2F7822B8C1979
:101830008D2589872C812B2530E04A2F477050E079
:10184000D888C201841B950B190102C0220C331CDD
:101850008A95E2F7C10102C0359527954A95E2F7CE
:10186000822B8D198C258A878D81E826FF24E770CD
:10187000F0E0C2018E1B9F0B970102C0220F331FA5
:101880008A95E2F7C90102C0F594E794EA95E2F778
:101890008E298D198B258B878E81A827B0E0CD01ED
:1018A00002C0880F991F6A95E2F7BC0102C0B59586
:1018B000A7950A95E2F76A2B6A1969256C87CE010C
:1018C00007966BE672E046E050E00E94A2050097A2
:1018D00099F083940894611C711C97E06916710457
:1018E00059F0862C80E090E09301220F331F260DE3
:1018F000371D220F331F24CF282D30E02F5F3F4F9D
:1019000080916F02522F4427FA01E80FF11DEE5625
:10191000FF4F94912F5F3F4F80916402322F222717
:10192000F901E80FF11DEE56FF4FE491E927E0932E
:10193000490280916D02FA01E80FF11DEE56FF4F4A
:10194000949180916602F901E80FF11DEE56FF4F68
:10195000E491E927E0934A0280917002FA01E80FCE
:10196000F11DEE56FF4F949180916802F901E80F46
:10197000F11DEE56FF4FE491E927E0934B02809171
:101980006B02FA01E80FF11DEE56FF4F9491809122
:101990006302F901E80FF11DEE56FF4FE491E927CC
:1019A000E0934C0280916C02FA01E80FF11DEE56B3
:1019B000FF4F949180916502F901E80FF11DEE56F9
:1019C000FF4FE491E927E0934D0280916E02FA0106
:1019D000E80FF11DEE56FF4F949180916A02F901D4
:1019E000E80FF11DEE56FF4FE491E927E0934E0218
:1019F00080916102FA01E80FF11DEE56FF4F9491BC
:101A000080916702F901E80FF11DEE56FF4FE49156
:101A1000E927E0934F0280916202FA01E80FF11D7D
:101A2000EE56FF4F949180916902F901E80FF11D84
:101A3000EE56FF4FE491E927E093500280916B024C
:101A4000FA01E80FF11DEE56FF4F9491809162026A
:101A5000F901E80FF11DEE56FF4FE491E927E093FD
:101A6000510280917002FA01E80FF11DEE56FF4F0E
:101A7000949180916502F901E80FF11DEE56FF4F38
:101A8000E491E927E093520280916E02FA01E80F97
:101A9000F11DEE56FF4F949180916102F901E80F1C
:101AA000F11DEE56FF4FE491E927E0935302809138
:101AB0006D02FA01E80FF11DEE56FF4F94918091EF
:101AC0006A02F901E80FF11DEE56FF4FE491E92794
:101AD000E093540280916F02FA01E80FF11DEE5677
:101AE000FF4F949180916802F901E80FF11DEE56C5
:101AF000FF4FE491E927E093550280916C02FA01CF
:101B0000E80FF11DEE56FF4F949180916902F901A3
:101B1000E80FF11DEE56FF4FE491E927E0935602DE
:101B200080916402FA01E80FF11DEE56FF4F949187
:101B300080916602F901E80FF11DEE56FF4FE49126
:101B4000E927E093570280916302480F511D4E56DA
:101B50005F4FFA01949180916702280F311D2E5634
:101B60003F4FF901849189278093580266960FB6FA
:101B7000F894DEBF0FBECDBFCF91DF911F910F91C3
:101B8000FF90EF90DF90CF90BF90AF909F908F909D
:101B90007F906F905F904F903F902F900895CF92DD
:101BA000DF92EF92FF920F931F93CF93DF938C01FD
:101BB0008130910539F48CE293E00E941D108093EE
:101BC00046027BC0823091050CF477C08CE293E032
:101BD0000E941D10E82EF82EF394CC24C1E0D0E032
:101BE000DF2CDA948CE293E00E941D10482F80EFE6
:101BF000E81621F4453511F4109248028091120242
:101C00008A3AB9F480914802882399F08D2D90E0AA
:101C1000FC01E770F070DF01AF5ABD4F2C91E75B1C
:101C2000FD4F30818E5D9E4F2427230FFC012083C2
:101C300005C0ED2DF0E0EE5DFE4F4083F0E5FF16B0
:101C400011F4CC24C3942196F394C017D10744F225
:101C5000E0911E01F0911F01309721F0602F61503B
:101C60008E2D0995CC2049F120E430E049E450E084
:101C7000FA01E21BF30BD901AE5DBE4F8C91EF5917
:101C8000FD4F80832F5F3F4F2A34310589F74FE4A2
:101C900050E0FA01E21BF30BD901AE5DBE4F8C910F
:101CA000E559FD4F80832F5F3F4F2035310589F780
:101CB0000E94800B81E080934802DF91CF911F91B9
:101CC0000F91FF90EF90DF90CF90089510927702E0
:101CD000449A459AE9EBF0E080818E7F8083808191
:101CE0008D7F808388E48093B80085E48093BC0076
:101CF0000895880F8093BA000895482F613210F03C
:101D000081E0089580917702843011F082E0089597
:101D10006093C002AFE9B2E0842F9C01F90102C0D8
:101D200081918D938E2F841B8617D0F380E00895C8
:101D300090937C0280937B02089590937A02809323
:101D4000790208951F920F920FB60F9211242F93CC
:101D50003F934F935F936F937F938F939F93AF9333
:101D6000BF93EF93FF938091B90090E0887F9070CC
:101D70008036910509F4DCC081369105CCF58832B6
:101D8000910509F47BC089329105B4F48031910545
:101D900009F46FC0813191053CF4009709F431C119
:101DA000089709F039C165C08831910509F466C00A
:101DB000809709F031C17DC08034910509F49FC03E
:101DC0008134910544F48033910509F47DC0C897AE
:101DD00009F022C184C08035910509F484C088359A
:101DE000910509F491C08834910509F015C198C096
:101DF0008839910509F4FDC089399105ECF48837DB
:101E0000910509F495C0893791054CF48836910500
:101E100009F48EC08037910509F0FEC089C088386A
:101E2000910509F4E6C08039910509F487C080382E
:101E3000910509F0F1C082C0803B910509F4B0C062
:101E4000813B91054CF4803A910509F489C0883AA8
:101E5000910509F0E1C0A4C0803C910509F4CDC012
:101E6000883C910509F4C9C0883B910509F0D4C0AC
:101E7000ACC0809178028093BB00B9C090919D0264
:101E800080919E02981768F490919D02E92FF0E0EE
:101E9000E358FD4F80818093BB009F5F90939D022C
:101EA000A6C085ED8093BC008091BC0084FDFCCF72
:101EB000B1C080E28093E20285ED8093BC00809106
:101EC000BC0084FDFCCFA6C080E38093E20285EDD8
:101ED0008093BC008091BC0084FDFCCF9BC088E354
:101EE0008093E2028AC080919D029091BB00E82F0E
:101EF000F0E0E358FD4F90838F5F80939D029091B7
:101F00009D0280919E0271C080919D029091BB00C4
:101F1000E82FF0E0E358FD4F90838F5F80939D02A0
:101F200085ED8093BC008091BC0084FDFCCF72C025
:101F300083E0809377021092E10259C08091E10220
:101F4000803208F056C08091E1029091BB00E82FEA
:101F5000F0E0EF53FD4F90838F5F8093E10247C025
:101F60008091E102803230F4E091E102F0E0EF5341
:101F7000FD4F108285ED8093BC008091BC0084FDF4
:101F8000FCCF109277026091E102E0917B02F09128
:101F90007C0281EC92E070E009951092E1022DC084
:101FA00084E0809377021092BF021092C002E09109
:101FB0007902F0917A0209958091C002882329F470
:101FC00081E08093C00210929F029091BF02E92F9E
:101FD000F0E0E156FD4F80818093BB009F5F9093BE
:101FE000BF029091BF028091C002981710F485EC57
:101FF00001C085E88093BC000FC085EC8093BC00D5
:1020000009C01092E20285ED8093BC008091BC0073
:1020100084FDFCCF10927702FF91EF91BF91AF91B9
:102020009F918F917F916F915F914F913F912F91F0
:102030000F900FBE0F901F90189590910303809101
:102040000403981710F080E00895E92FF0E0ED51B7
:10205000FD4F80819F5F909303030895AC01209111
:102060002A0330912B0321153105E1F090910303F0
:10207000809104039817B0F090E008C0FA01EA0FCD
:10208000FB1F8081AD51BD4F8C939F5FA92FB0E0A6
:10209000A617B7079CF31092030360930403CB01C8
:1020A000F90109950895E0912803F09129033097EB
:1020B00029F0109225031092260309950895709334
:1020C0002B0360932A0308957093290360932803D8
:1020D00008950895DF93CF930F92CDB7DEB769834C
:1020E00080912703882389F080912603803290F421
:1020F00080912503E82FF0E0EB5FFC4F60838F5F5A
:10210000809325038093260305C0CE01019661E0EC
:102110000E947D0E0F90CF91DF910895EF92FF9274
:102120000F931F93CF93DF937C01042F809127039C
:10213000882359F0EB0110E005C0C70169910E94A6
:102140006A101F5F1017C8F304C0CB01642F0E94F0
:102150007D0EDF91CF911F910F91FF90EF90089529
:102160001092030310920403109225031092260389
:102170000E94660E08950F931F938C01862F0E9474
:10218000790E83E590E10E949D0E8EE290E10E941F
:10219000980EC8010E94B0101F910F9108950E94DF
:1021A000BB1008951F920F920FB60F9211242F9318
:1021B0003F934F935F936F937F938F939F93AF93CF
:1021C000BF932091310330913203409133035091FA
:1021D000340370913503DA01C9010296A11DB11DC6
:1021E000672F6A5F6D3730F06D57DA01C9010396CA
:1021F000A11DB11D60933503809331039093320389
:10220000A0933303B093340380912D0390912E0358
:10221000A0912F03B09130030196A11DB11D8093B1
:102220002D0390932E03A0932F03B0933003BF91FF
:10223000AF919F918F917F916F915F914F913F915E
:102240002F910F900FBE0F901F9018959B01AC011E
:102250007FB7F89480912D0390912E03A0912F03C6
:10226000B091300366B5A89B05C06F3F19F0019689
:10227000A11DB11D7FBFBA2FA92F982F8827860FC8
:10228000911DA11DB11D63E0880F991FAA1FBB1FDF
:102290006A95D1F7BC012DC0FFB7F89480912D034A
:1022A00090912E03A0912F03B0913003E6B5A89B27
:1022B00005C0EF3F19F00196A11DB11DFFBFBA2F58
:1022C000A92F982F88278E0F911DA11DB11DE3E026
:1022D000880F991FAA1FBB1FEA95D1F7861B970B82
:1022E000885E9340C8F221503040404050406851D1
:1022F0007C4F211531054105510571F6089501976F
:1023000039F0019729F0880F991F01970197F1F78C
:102310000895789484B5826084BD84B5816084BD5D
:1023200085B5826085BD85B5816085BDEEE6F0E04E
:10233000808181608083E1E8F0E080818260808339
:10234000808181608083E0E8F0E08081816080832B
:10235000E1EBF0E0808184608083E0EBF0E080815D
:1023600081608083EAE7F0E08081846080838081FF
:1023700082608083808181608083808180688083A7
:102380001092C1000895482F50E0CA018C53954F18
:10239000FC0124914055554FFA0184918823C1F0E6
:1023A000E82FF0E0EE0FFF1FEE56F54FA591B49128
:1023B000662341F49FB7F8948C91209582238C93E7
:1023C0009FBF08959FB7F8948C91822B8C939FBFE9
:1023D0000895482F50E0CA018852954FFC0124917E
:1023E000CA018C53954FFC0134914055554FFA0169
:1023F0009491992309F440C0222331F1233021F430
:10240000809180008F7705C0243031F48091800066
:102410008F7D8093800018C0213019F484B58F77A8
:1024200004C0223021F484B58F7D84BD0DC02630D8
:1024300021F48091B0008F7705C0273029F4809176
:10244000B0008F7D8093B000E92FF0E0EE0FFF1F0A
:10245000E456F54FA591B491662341F49FB7F894E3
:102460008C91309583238C939FBF08959FB7F894E8
:102470008C91832B8C939FBF0895682F70E0CB01C4
:102480008852954FFC012491CB018C53954FFC0150
:1024900044916055754FFB019491992319F420E004
:1024A00030E038C0222331F1233021F480918000C4
:1024B0008F7705C0243031F4809180008F7D809328
:1024C000800018C0213019F484B58F7704C0223001
:1024D00021F484B58F7D84BD0DC0263021F4809118
:1024E000B0008F7705C0273029F48091B0008F7D30
:1024F0008093B000892F90E0880F991F8A55954FDF
:10250000FC01A591B4918C9120E030E0842311F07E
:1025100021E030E0C9010895EE0FFF1F0590F4910E
:08252000E02D0994F894FFCFAF
:10252800FC047EFC047EFC047EFC047E00000000AB
:0E25380009000A007102FF0000A4200101004A
:00000001FF
