:100000000C9478050C94A0050C94A0050C94A00504
:100010000C94A0050C94A0050C94A0050C94A005CC
:100020000C94A0050C94A0050C94A0050C94A005BC
:100030000C94A0050C94A0050C94A0050C94A005AC
:100040000C945A160C94A0050C94A0050C94A005D1
:100050000C94A0050C94A0050C94A0050C94A0058C
:100060000C94E1130C94A005A877A6E0F7435A3549
:1000700085E272978FB71A6287380D67C7BE4F3E09
:100080002076378F68B7A9263F2B10E3307E900E7D
:10009000850A70510386400D4FEB3ECCD18735BDAC
:1000A000F50B5ED0F8F2D5E26C310CADFC21C378D3
:1000B000C106C24C55E64A3448111EDAE71A84A03C
:1000C00096A7E37FAF639CFA235B79C89EBAB2C957
:1000D00022124BB3A1B63249A2E189391066C50795
:1000E0008F54EA91CA3FF919F0D746BC281B61E842
:1000F0002F6AAE9DF64E0914774DDB1F2E7B7CF1E7
:1001000043A300B8138C85B9297588FDD2561C50BD
:100110009741E53B60B5C064EE98D62D25A4AACDE5
:100120007DA883C6ABBE4499263CCE9FBFD3CB7679
:100130007A7E82018A9A801D0EB05CD43862F430D7
:10014000E08E53B70257ACA6520A6D92651724335E
:10015000457274B1B4F75DED2CFF47375A90BBDFA1
:100160002A165995D9C4276773C768FEA5DD6B5F4A
:1001700093D8EC053A8D6EFB3DA96936F394DEEF1A
:10018000156F8B9B080FDC81182004E471CFE92BDD
:10019000425801A0A962D63F85A7B6D4FA156617C2
:1001A00009BD5D14342659729154064FF8B05B7442
:1001B00093998CF245CDEA4EAD104AE5CAEEDFC602
:1001C0006F9F888E02CC08A877946D21B128E439FE
:1001D0007996607181162EE678B9C4469A42AEB718
:1001E0007C43B3221A86C2323D2D9CD229E9639BFF
:1001F000D131385E1E3641BB03182B3EBF6861FC0F
:1002000052C0DEE00A58135A00BE1C900E5312FD75
:10021000E26EBACE2427447F87A3A1D55040E3F9EC
:1002200083F7C7A235C8DB19AB2F1125ED339E55D7
:10023000E148AF7384DA2AAA51EB9D95B2CBE770FF
:1002400080FE4C6504EFC5F1C33AB4F55F2389DD48
:1002500030A58BD3F6DC4D64D7F08FEC56375CA419
:100260000D07768A2C0BB5D8C11FE83BF44B1B4712
:100270006C49677B92CF757E20D97D3C977AD005FB
:100280006B0F1DFB8298578DF36ABCACC9A6FFB8F3
:10029000690C4C4D72075A49338DA2AB463D630D34
:1002A000A097FFF0F5FAC0E9DB62E4E17443DC8675
:1002B000182937F406E2ED6F90481E2D1DEA73945D
:1002C00054DF25F64727D91177C9841C5B5C51811F
:1002D000A6223E2496C88AEC827C09B8454A57BBC0
:1002E0002F50758E61708C6CAFD0FDB41BAEDEFEEE
:1002F0003BB536BD55010E9C41565FB3260383BA0C
:10030000134BCAC50AF860A5B9C7C39832FB12F9E6
:10031000A792AA68F3787E05202102E8BFF2B059BF
:100320008FD2CB876515F11AB230ADEE58A38B662C
:100330001F2CD75D1985A8E6D36BA10C91936A5E3B
:100340000B79E3DD004F3C896E7169A9AC40E599FA
:1003500028C6314E7ACD089E7DEF17FC88D8A46D53
:100360004495D1B7D49BBE2A34642BCF2EEB38CE24
:1003700023E03A3FF77B9F1053BC526716E7807625
:1003800004C4B6C1C27F9ADAD53942149DB10F3583
:10039000D6CCB9DA380CA29C091F06B1B6FD1A6991
:1003A0002330C4DE01D1F45829371C7DD5BFFFBDF1
:1003B000C8C9CF65BE7B7897986708B32657F7FA08
:1003C00040AD8E75A67CDB918B5199D4177A908DB8
:1003D000CE63CB4EA0AB183A5B507F2174C1BBB843
:1003E000B7BA0B359531599A4D04071E5A7613F357
:1003F0007183D08603A83942AA28E6E4D85DD3D019
:100400006E6F96FB5EBC56C25F859BE7AFD23B84A6
:100410006AA753C54449A5F936723D2CD91BA1F5ED
:100420004F939D68474116CA2A4CA387D6E5192EDB
:1004300077156D70C0DFB20046EDC66C4360922D3B
:10044000A922458F3455AEA40A6632E0DC02ACE83E
:10045000208C89624AFEEEC3E33CF17905E9F62778
:1004600033CCF29E11817E80108A829F480DD7B4D2
:10047000FC2FB5C7DD88146B2B54EA1D945CB0EFDC
:100480001224CDEBE1E264733F0E5261253EF80F7A
:100490004BECC00030F602493D106E20C9A62FFE7D
:1004A0002C2B752E4526AB48A980FC04CCD3B5BABD
:1004B000A338317D01D9A77B96B663694EF7DEE09C
:1004C00078CA50AA41916588E42185DA3A27BE1C92
:1004D0003E425E17527F1F89246F8F5C67740E1235
:1004E000878DE934ED73C4F8615B05DF594C97796A
:1004F0008318A45595EBBD53F5F15766469FB2811D
:100500000951862216DD23937629C2D71DD4BF3622
:100510003FEA4B1132B9625460D66D439A0D929CFA
:10052000B0EF586C9D772D70FAF3B30BE2407EF478
:100530008AE58C3C5671D164E1820ACB131590ECAC
:100540000399AF145D0F334A94A5A8351BE36AC61F
:1005500028FF4DE72584AC08AEC5A22AB8370C7A2F
:10056000A0C3CEAD061A9E8BFBD5D0C11ED0B49BC6
:10057000B144F247C768CF72BB4F5AF9DC6BDBD28C
:10058000E87CC8EE98A1E6D839075FFD8E19B73B25
:10059000BCCD7CE38173B211BF6F2098FE7596EFDE
:1005A0006CDA50E109725445BA34805BED3E532C4D
:1005B00087A457F3333F3CB767B4A325604F076B5D
:1005C0001B47150FE40AEAD1327836498D4BD2BC6D
:1005D000A5DC1D0D4DCD9A825FFC9465BEE2F4C989
:1005E0001E44CB9E0C64712663B314E840708A0EDF
:1005F00019426DAC88105CDF41A9ADE5FB74CCD528
:10060000068E5986CE1F3D76E08FB977277BA6D818
:1006100029D3ECB813F7FAC3516ADE4A5AEBC28BFE
:10062000234892CF62A899F8D02E856143C8BDF0C7
:100630000593CA4EF17D30FDC469662F08B152F9A9
:1006400021E67A2BDD3984FFC091D637D47F2D9BEC
:100650005DA13B6EB5C54604F590EE7E831C035646
:10066000B6AA0017013555790B12BB1A31E70228DB
:1006700016C1F6A2DB189C89683897ABC72AD73A0F
:10068000F2C6244CB058A0225E9DD9A7E9AEAF8C2B
:10069000959F28B720D7B030C30919C067D6003C52
:1006A0007EE7E9F4085AF8B82E05A6259E5CD81511
:1006B0000DE1F611546BCD2146665E84AD063829F6
:1006C00044C5A2CEF1AAC1407186B5EFFC36A8CBD5
:1006D0000A48274564A3AF8CB2C69F0789DC17D3AD
:1006E0004979FBFE1DD0B9884352BC01782B7D941B
:1006F000C70EDEA5D59BCCF7617AC274813903ABF6
:1007000096A037BD2D72753FC9D48E6FF98DED62FD
:10071000DB1CDF04AC1B6C144B63D0BFB482EC7BDE
:100720001A5992D21060B63D5FE6806E70C4F23501
:10073000D97CEEE541A45B50DDBB4CF31F9D5D57BA
:10074000555197E358424D9C73BAC877316926AE2C
:10075000EA8ADA22B38756FA930B341633E8E45365
:10076000BEA9B13A3EF5906ACF3B12FD8F9AA747DA
:100770009199EB0F24FF2318854E7F0CE0A1D2D175
:100780002C2A4A024F1E95688B98836D76CA653273
:10079000132FC3829AA4BA8160373435FC80A851E4
:1007A0006567ED305F10D34A272F13B92AD2CCE109
:1007B000EFAEEBBEF4BDCF43B3C58884B7DD39409F
:1007C000CE486D9B72617EE7A14E532E773BE2C906
:1007D00036221B6E73B103B24C87A9D44D0FD815C6
:1007E0006CAA18F649575DFB7A149463A011B09E69
:1007F000DE0546C8EE47DBDC24899C919729E97B1E
:10080000C1071EB8FDFEACC662984FF179E0E86BF7
:100810007856B68D045086CA6F20E6EAE576171C36
:10082000747FBC0D2C85F76696E48B753F4BD938E9
:10083000AF7CDA0B832D3132A2F51D594145BF3C07
:100840001FF8F98AD016256912999D2195AB01A64A
:10085000D7B5C07DFF580E3A92D155E3089FD63EDA
:10086000528EFAA3C702CDDF8F64198CF3A70C5EFA
:100870000A6A09F0935B42C20623EC71ADB4CBBBAC
:100880007028D51A5C33685A004490A5C4263D2BC5
:10089000F25496ADDA1FED33E18169080D0ADB35BC
:1008A000779A64D1FC78AA1BD067A0DDFA6C6371DB
:1008B0000584176A894F667FC65055926FBDE7D28F
:1008C00040728DBBEC06428AE4889D7E7A822713B3
:1008D000411AAFC8A476B4C2FE6D1CD96130B37C96
:1008E000EAF7290FF23B51C1DE5FE52A2F990B5D34
:1008F000A32B4AAB95A5D35856EE283100CC15460C
:10090000CAE686383C65F5E39FD65B094983702DBE
:1009100053A97DE2C4AC8E5EB825F4B957F3F168F3
:1009200047B2A25920CE34795C900E1EBED5222348
:10093000B1C91862162E913E078FD83F933DD49BC4
:10094000DF8521FB117497C7D7DC4C194598E94323
:10095000024BBCC3049C6BF07552A726F6C5BACFF8
:10096000B0B7AE5AA1BF038B80126E0CEBF9C04436
:1009700024EF10F8A88CE87BFF9E2CCD603687B55D
:1009800094A654733A144E011DB6FD37484D39CB29
:10099000E032000000000000000000000000000045
:1009A0000000000000000000000000000000000047
:1009B0000000000000000000000000000000000037
:1009C0000000000000000000000000000000000027
:1009D0000000000000000000000000000000000017
:1009E0000000000000000000000000000000000007
:1009F00000000000000000000000000000000000F7
:100A000000000000000000000000000000000000E6
:100A100000000000000000000000000000000000D6
:100A200000000000000000000000000000000000C6
:100A300000000000000000000000000000000000B6
:100A400000000000000000000000000000000000A6
:100A50000000000000000000000000000000000096
:100A60000000000000000000000000000000000086
:100A70000000000000000000000000000000000076
:100A80000000000000000000000000000000000066
:100A9000000000000000240027002A0000000000E1
:100AA000250028002B00000000002300260029005C
:100AB0000404040404040404020202020202030304
:100AC000030303030102040810204080010204080C
:100AD000102001020408102000000007000201009D
:100AE000000304060000000000000000D20CA8155E
:100AF00011241FBECFEFD8E0DEBFCDBF11E0A0E0D4
:100B0000B1E0E2EAF3E302C005900D92AC34B10724
:100B1000D9F713E0ACE4B1E001C01D92A436B107EF
:100B2000E1F71AE0C0EFDAE004C02297FE010E946C
:100B3000CB19CC3ED107C9F70E94720B0C94CF1988
:100B40000C940000FB01DC0104C08D910190801920
:100B500021F441505040C8F7881B990B0895DC01DF
:100B600001C06D9341505040E0F70895CF92DF925D
:100B7000EF92FF920F931F93CF93DF93EC016B01E2
:100B80008C819D8197FF03C020E030E03CC08A81CA
:100B900060E00E947F17888160E00E947F178A8151
:100BA00061E00E947F1781E090E00E9415178A8122
:100BB00060E00E947F178C810E94D3177C0101E0C6
:100BC00010E019C0888161E00E947F1781E090E009
:100BD0000E941517888160E00E947F178C810E9417
:100BE000D317002E02C0880F991F0A94E2F7E82A53
:100BF000F92A0F5F1F4F0C151D0524F38E2D8095CC
:100C00008E83282F30E0C901DF91CF911F910F9182
:100C1000FF90EF90DF90CF9008950F931F938C017A
:100C2000862FF80160837183538342833583248345
:100C3000168261E00E945917F801828161E00E94EA
:100C40005917F801848160E00E9459171F910F9194
:100C500008956FEF7FEF4FEF5FEF2FEF3FEF0E94B1
:100C60000D06089520E0FC01808D918D8095909572
:100C700086239723892B09F021E0822F0895FC0118
:100C8000E60FF11D80810895CF92DF92EF92FF92DF
:100C90000F931F93CF93DF93EC01EFB6F8941D8A67
:100CA000FF24C62EDD24C7FCD09401E010E057C01D
:100CB000960102C0359527958A95E2F7C901EE8D18
:100CC000FF8D9D8D80FF0AC02081A80102C0440FC6
:100CD000551F9A95E2F7242B20830BC02081A80191
:100CE00002C0440F551F9A95E2F7CA0180958223EE
:100CF0008083EB8DFC8D2081C8010A8C02C0880F97
:100D0000991F0A94E2F7809582238083EFBE84E1E5
:100D100090E00E941517F894ECA1FDA1808190E06D
:100D20000BA002C0959587950A94E2F780FF08C052
:100D3000C8010D8802C0880F991F0A94E2F7F82AAB
:100D4000EB8DFC8D2081C8010A8C02C0880F991F91
:100D50000A94E2F7282B20838D898F5F8D8B8D89F4
:100D6000883008F4A5CFEE8DFF8D208181E090E0E2
:100D70000D8C02C0880F991F0A94E2F7282B20835C
:100D8000EFBE83E090E00E9415178F2DDF91CF9189
:100D90001F910F91FF90EF90DF90CF900895BF9239
:100DA000CF92DF92EF92FF920F931F93CF93DF9337
:100DB0008C016B01BFB6F894DC019196ED91FC912A
:100DC0009297208181E090E090960C9002C0880F6D
:100DD000991F0A94E2F7809582238083BFBEC0E00A
:100DE000D0E0E42EFF2408C0F601EC0FFD1FC8017F
:100DF00060810E9444062196CE15DF05ACF3F8947D
:100E0000D8019196ED91FC919297208181E090E03C
:100E100090960C90909702C0880F991F0A94E2F761
:100E2000282B2083BFBE9A966C9170E080E090E002
:100E30000E94BC16DF91CF911F910F91FF90EF9010
:100E4000DF90CF90BF900895CF93DF93EC0160E0E7
:100E500071E045E00E94CF06CE0165E071E049E017
:100E60000E94CF068CA5882331F0CE016EE071E0A0
:100E700045E00E94CF068DA5882331F0CE0163E1C5
:100E800071E049E00E94CF06CE016CE171E049E0DB
:100E90000E94CF06DF91CF9108955F926F927F926B
:100EA0008F929F92AF92BF92CF92DF92EF92FF927A
:100EB0000F931F93DF93CF93CDB7DEB765970FB630
:100EC000F894DEBF0FBECDBF4C01562E742E0E948B
:100ED000AE16D40196962D913D914D915C919997C6
:100EE000621B730B840B950B0E94B7185B016C019E
:100EF0006FB620E030E84BEB54E40E9469191816F5
:100F00001CF4C4010E942407F40162A570E0882744
:100F100077FD8095982F0E94B9187B018C01C6013E
:100F2000B501A80197010E948718882354F4C801CD
:100F3000B701A60195010E9422180E948B180E94F9
:100F4000BC16D40158968D919C91599757969C93B5
:100F50008E935697772029F100D000D0672D70E04E
:100F600080E090E02FEF30E040E050E0EDB7FEB7DA
:100F7000218332834383548320E030E040E050E01B
:100F8000FFEFEF2EF12C012D112DE0E4AE2EB12C50
:100F9000C12CD12C0E941116762E0F900F900F901D
:100FA0000F90F894D4015E96ED91FC915F9740818B
:100FB00081E090E09C015D960C905D9702C0220F4D
:100FC000331F0A94E2F7422B40835B96ED91FC912C
:100FD0005C9740819C015A960C905A9702C0220F50
:100FE000331F0A94E2F7422B40839196ED91FC91D6
:100FF0009297208190960C9002C0880F991F0A94B6
:10100000E2F78095822380836FBE83E090E00E94A8
:101010001517DE01119689E0FD0111928A95E9F715
:1010200081E0898382E48A835C827D829E01265FDF
:101030003F4F8CE0F90111928A95E9F700E010E04A
:101040007D01F701E00FF11FC40160810E94440699
:10105000F401E00FF11F80830F5F1F4F093011056E
:1010600081F7D40111968C918937C9F49AE0E92E61
:10107000F12CEC0EFD1E840186E1C82ED12CCC0E85
:10108000DD1EC401F70161917F010E944406D80171
:1010900019968C930F5F1F4FEC14FD0491F7F89491
:1010A000D4019196ED91FC919297208181E090E09E
:1010B00090960C90909702C0880F991F0A94E2F7BF
:1010C000282B20836FBE13968D919C91149759966F
:1010D0009C938E9358970E94AE16F40166A377A353
:1010E00080A791A765960FB6F894DEBF0FBECDBF5F
:1010F000CF91DF911F910F91FF90EF90DF90CF90F4
:10110000BF90AF909F908F907F906F905F90089569
:1011100060E040E00E944D0708954F925F926F9209
:101120007F928F929F92AF92BF92CF92DF92EF9277
:10113000FF920F931F93DF93CF93CDB7DEB729971D
:101140000FB6F894DEBF0FBECDBF5C01F42E122F98
:101150005E2C4C2C9FB6462F50E0FA01EC53F54F15
:10116000E49120E030E0F0E0CF01022E02C095953E
:1011700087950A94E2F780FF02C0822F06C02F5F96
:101180003F4F2830310581F780E0D5015A968C9386
:101190005A974055554FFA018491E82FF0E0EE0F31
:1011A000FF1FE456F54F859194915C969C938E9326
:1011B0005B974F2D50E0FA01EC53F54FE49120E09E
:1011C00030E0F0E0CF01022E02C0959587950A9499
:1011D000E2F780FF02C0822F06C02F5F3F4F28300A
:1011E000310581F780E0D5015D968C935D97405580
:1011F000554FFA018491E82FF0E0EE0FFF1FE456FF
:10120000F54F859194915F969C938E935E97412FB5
:1012100050E0FA01EC53F54FE49120E030E0F0E0CB
:10122000CF01022E02C0959587950A94E2F780FFC0
:1012300002C0822F06C02F5F3F4F2830310581F753
:1012400080E0D50190968C9390974055554FFA01C8
:101250008491E82FF0E0EE0FFF1FE456F54F8591E3
:10126000949192969C938E939197402F50E0FA011F
:10127000EC53F54FE49120E030E0F0E0CF01022E96
:1012800002C0959587950A94E2F780FF02C0822FED
:1012900006C02F5F3F4F2830310581F780E0D50130
:1012A00093968C9393974055554FFA018491E82F6C
:1012B000F0E0EE0FFF1FEA55F54F8591949195965A
:1012C0009C938E939497862F61E00E945917812FEB
:1012D00061E00E9459178F2D61E00E945917802FFD
:1012E00060E00E945917802F61E00E947F17F894F8
:1012F000D5015E96ED91FC915F97408121E030E051
:10130000C9015D960C905D9702C0880F991F0A94E1
:10131000E2F7482B40835B96ED91FC915C978081CE
:101320005A960C9002C0220F331F0A94E2F7822BC8
:1013300080839FBEC5010E948808C5010E9488085D
:10134000F5018181813431F0833721F0893711F043
:1013500081E0BEC081E0D5019A968C93EE24FF24F3
:10136000A1E0CA2ED12C3E010894611C711C882476
:101370008394C50160E071E045E00E94CF0683E000
:1013800090E00E941517F894D5015E96ED91FC91BE
:101390005F972081C6015D960C905D9702C0880F13
:1013A000991F0A94E2F7282B20835B96ED91FC911C
:1013B0005C972081C6015A960C905A9702C0880FFC
:1013C000991F0A94E2F7282B20839196ED91FC91C6
:1013D00092972081C60190960C9002C0880F991FA9
:1013E0000A94E2F78095822380839FBE83E090E099
:1013F0000E94151700E010E0F801E45CFE4FC50103
:1014000060810E944406F301E00FF11F80830F5FAB
:101410001F4F0930110581F7F894D5019196ED9190
:10142000FC9192972081C60190960C90909702C0F3
:10143000880F991F0A94E2F7282B20839FBE8C8186
:101440009B968C93C50165E071E049E00E94CF0650
:10145000442041F0C5016EE071E045E00E94CF06F6
:10146000F50184A6552049F0C50163E171E049E02A
:101470000E94CF06D5019D968C92C5016CE171E06A
:1014800049E00E94CF06C5010E948808552041F01E
:10149000F50181818937D9F0833711F483E018C0D1
:1014A000D50111968C91833791F0BAE0EB16F104D7
:1014B00011F482E00DC0F50182A58F5F82A7089428
:1014C000E11CF11CFBE0EF16F10409F052CF80E0C3
:1014D00029960FB6F894DEBF0FBECDBFCF91DF9136
:1014E0001F910F91FF90EF90DF90CF90BF90AF9042
:1014F0009F908F907F906F905F904F90089552983B
:101500005398549855985698579A20985A9A5B9A97
:101510005C9A5D9A5E9A5F9A289A08952F923F92FC
:101520004F925F926F927F928F929F92AF92BF92F3
:10153000CF92DF92EF92FF920F931F93DF93CF939F
:1015400000D00F92CDB7DEB75F9A8EE090E00E9498
:10155000151749B149834B9B03C02224332403C090
:1015600002E0202E312C4C9B03C04424552403C0A0
:1015700014E0412E512C4D9B03C06624772403C0F8
:10158000B8E06B2E712C4E9B03C01B821A8204C0E4
:1015900080E190E09B838A83C3B05F988EE090E007
:1015A0000E9415174E9B03C08824992403C0A0E411
:1015B0008A2E912CD3B05F9A8EE090E00E9415178E
:1015C0005F988EE090E00E9415175F9A8EE090E0A1
:1015D0000E94151709B14B9B03C020E030E002C008
:1015E00022E030E04C9B03C080E090E002C084E049
:1015F00090E04D9B03C0AA24BB2403C0F8E0AF2EAB
:10160000B12C10E0169507951695079571E0E72E19
:10161000F12C0E251F2501701070022B132B082BA7
:10162000192B5F988EE090E00E9415175F9A8EE06C
:1016300090E00E9415175F9891E0C92281E0C826CA
:101640002C2D30E065E0220F331F6A95E1F7D82298
:10165000D8268D2D90E09695982F88279795879579
:10166000282B392BE9818E2F90E0969587959695BA
:1016700087958E259F2581709070282B392B2229E4
:10168000332924293529262937298A819B81822BD0
:10169000932B9B838A8362E070E080E090E00E945D
:1016A000BC162A813B81282939290A291B29102F98
:1016B0000027202B312BC9010F900F900F90CF9155
:1016C000DF911F910F91FF90EF90DF90CF90BF902F
:1016D000AF909F908F907F906F905F904F903F90D2
:1016E0002F9008950E941F170E9406100E94CA0C96
:1016F000FDCF4F925F926F927F928F929F92AF92A7
:10170000BF92CF92DF92EF92FF920F931F93DF93DE
:10171000CF93CDB7DEB7DC013B0129016D8D7E8D06
:10172000E8A12F8D30E0C90188719070F3E0880F37
:10173000991FFA95E1F76F73682B6C93C901867056
:10174000907065E0880F991F6A95E1F77F73782B99
:1017500011967C931197EF713695322F222737958A
:101760002795E22B1296EC93129713961C921397DF
:10177000452B11F470E001C070E8012B11F420E05A
:1017800001C020E48B899C89892B11F460E001C0A1
:1017900060E28F89988D892B11F450E001C050E1EF
:1017A000898D9A8D892B11F440E001C044E08D8928
:1017B0009E89892B11F430E001C032E08B8D9C8D25
:1017C000892B11F480E001C088E0272B262B252BE4
:1017D000242B232B282B14962C931497CD2811F40B
:1017E00020E001C020E4892811F470E001C070E21B
:1017F000EF2811F460E001C060E1AB2811F450E083
:1018000001C058E0672811F440E001C042E089A11E
:101810009AA1892B11F430E001C030E88BA19CA182
:10182000892B11F490E001C094E080E0452809F094
:1018300081E0282B272B262B252B242B232B292B10
:1018400014968C911497809514968C931497822FEC
:10185000809515968C93CF91DF911F910F91FF90FA
:10186000EF90DF90CF90BF90AF909F908F907F9040
:101870006F905F904F9008956F927F928F929F929A
:10188000AF92BF92CF92DF92EF92FF920F931F938E
:10189000782E692E8DB79EB742970FB6F8949EBFEB
:1018A0000FBE8DBFEDB7FEB73196609152027091B9
:1018B00053024091540250915502209156023091AA
:1018C00057020091580210915902E0905A02F0908C
:1018D0005B02C0905C02D0905D02A0905E02B0906E
:1018E0005F0280906002909061028091620290910C
:1018F0006302ADB7BEB712969C938E9311978091F9
:101900006402909165029383828380916602909134
:10191000670295838483809168029091690297831E
:10192000868380916A0290916B0291878087809173
:10193000700282878091710283878091720284870E
:1019400080917302858780916C0290916D029787D8
:10195000868780916E0290916F02918B808B872D8C
:10196000962D0E94790B8DB79EB742960FB6F894CC
:101970009EBF0FBE8DBF872D962D1F910F91FF909B
:10198000EF90DF90CF90BF90AF909F908F907F901F
:101990006F900895E0915002F0915102309709F054
:1019A000099508958091270190E0959587959595E3
:1019B00087958093700280912A0190E09595879594
:1019C000959587958093710280912D0190E0B3E009
:1019D00095958795BA95E1F78093720280913001D1
:1019E00090E0A3E095958795AA95E1F7809373021F
:1019F00008952F923F924F925F927F928F929F9283
:101A0000AF92BF92CF92DF92EF92FF920F931F930C
:101A1000DF93CF93CDB7DEB7E8970FB6F894DEBF6C
:101A20000FBECDBF709027017694769480902A01E6
:101A30008694869490902D01969496949694D09046
:101A40003001D694D694D6945E010894A11CB11CA2
:101A5000C50165E043E024E002E0EE24CC240E94CE
:101A60008D088823A9F7C5010E948808C50167E091
:101A70000E943F06182F16951695C50168E00E9432
:101A80003F06C82EC694C694C50165E00E943F0675
:101A9000082F069506950695C50166E00E943F064B
:101AA0008695869586957E010894E11CF11C212F70
:101AB00030E0A9014A50504058AB4FA7A901465FFA
:101AC0005F4F5AAB49AB2C2D30E0A9014A50504032
:101AD0005CAB4BABA901465F5F4F5EAB4DAB10E01B
:101AE00098012A50304038AF2FAB5AE0252E312CC8
:101AF000200E311E90E046EF442E4FEF542E480E3C
:101B0000591E8C01065F1F4FC7010E948808C7013C
:101B100060E870E00E9432068093520210925302F5
:101B2000C70160E270E00E94320680935402109276
:101B30005502C70160E170E00E94320680935602B0
:101B400010925702C70160E470E00E943206809351
:101B5000580210925902C70160E070E80E943206F4
:101B60008093600210926102C70160E070E40E94FD
:101B7000320680935C0210925D02C70160E070E162
:101B80000E94320680935E0210925F02C70160E0FD
:101B900070E20E94320680935A0210925B02C701E3
:101BA00060E074E00E943206809362021092630249
:101BB000C70160E078E00E943206809364021092D0
:101BC0006502C70160E071E00E94320680936C02FA
:101BD00010926D02C70160E072E00E9432068093AD
:101BE0006E0210926F02C70161E070E00E9432063F
:101BF0008093660210926702C70168E070E00E945D
:101C00003206809368021092690280916C02909172
:101C10006D02892B11F420E008C020E080916E0253
:101C200090916F02892B09F021E020936A021092B3
:101C30006B02C70167E00E943F06A82EA694A694F7
:101C4000C70168E00E943F06C82EC694C694C7012B
:101C500065E00E943F06B82EB694B694B694C701CC
:101C600066E00E943F068695869586952A2D30E08F
:101C70004FA558A92417350734F049A95AA9421786
:101C800053070CF0A72C2C2D30E04BA95CA924178E
:101C9000350734F04DA95EA9421753070CF0C82C44
:101CA0002B2D30E04FA958AD2417350724F022160C
:101CB00033060CF0B92C282F30E02415350524F01C
:101CC000021713070CF08D2DA0927002C094C092E1
:101CD0007102B092720280958093730215CFFF92C9
:101CE0000F931F93DF93CF93CDB7DEB727970FB630
:101CF000F894DEBF0FBECDBF8E010F5F1F4FC8012E
:101D00000E942906C80162E070E043E050E024E050
:101D100030E00E940D06F02E012F8F2D902F68E0ED
:101D200070E00E94B6059C0120743070309353021D
:101D3000209352029C0120783070309355022093FA
:101D400054029C0120713070309357022093560248
:101D50009C012072307030935902209358029C01EC
:101D60002170307030935B0220935A029C012270E4
:101D7000307030935D0220935C029C0124703070BF
:101D80003093670220936602887090709093690286
:101D900080936802232B11F420E004C020E0892BFB
:101DA00009F021E020936A0210926B02B6CF0E94E4
:101DB0007F0A0E948E0A9C01247030703093530277
:101DC000209352029C01287030703093550220936A
:101DD0005402AC0141705070509357024093560228
:101DE0009C012270307030935902209358029C015C
:101DF0002072307030935B0220935A029C01207154
:101E0000307030935D0220935C029C012070327030
:101E100030935F0220935E029C01207430703093F7
:101E20006102209360029C01207034703093630241
:101E3000209362029C0120703170309365022093E0
:101E400064029C0120703870309367022093660210
:101E5000807890709093690280936802452B11F40A
:101E600020E004C020E0892B09F021E020936A02E1
:101E700010926B029ECF0F931F93809135010E94A9
:101E8000D3178C01809137010E94D317000F111FC7
:101E9000082B192BC8011F910F9108958F929F92C3
:101EA000AF92BF92CF92DF92EF92FF920F931F9368
:101EB00080E591E06FEF70E040E051E00E94AF05F7
:101EC0002AEF30E0F901E05BFE4FD901A55BBF4F7F
:101ED0008C9180832F5F3F4F81E02030380791F74E
:101EE000A5E2B1E0FD0190E08191980F81E0E3333C
:101EF000F807D1F7892F8B5A808396559183E0E7B5
:101F0000F1E08D918083808B319691E0A533B90704
:101F1000C1F7ADB7BEB752970FB6F894BEBF0FBEAC
:101F2000ADBFEDB7FEB731968091390190913A017E
:101F300012961C921E92119713821282158214829D
:101F400017821682118610862091270130E0359580
:101F5000279535952795228720912A0130E03595E0
:101F6000279535952795238720912D0130E0A3E013
:101F700035952795AA95E1F724872091300130E027
:101F800073E0359527957A95E1F7258717861686AC
:101F9000118A108A60E070E040E050E020E030E01C
:101FA00000E010E0EE24FF24CC24DD24AA24BB248E
:101FB000882499240E94790B85E580934002109231
:101FC0004B028DB79EB742960FB6F8949EBF0FBED8
:101FD0008DBF8AE593E062E570E00E940E168AE507
:101FE00093E06EE073E10E949E158AE593E06EE750
:101FF00070E10E94A3151F910F91FF90EF90DF9069
:10200000CF90BF90AF909F908F90089580913501B1
:1020100060E00E9459178091350161E00E947F17AE
:102020008091370160E00E9459178091370161E08B
:102030000E947F178CE39CE090934F0180934E01A8
:102040000E944E0F0E943B0F8230910541F0833079
:10205000910561F0019781F48FE69EE002C087ED63
:102060009EE09093510280935002089589EF9CE086
:10207000909351028093500208950F931F93CF9332
:10208000DF938C01362F942F809140028A3A59F5C4
:1020900080917602882339F140E050E0C62FD0E0ED
:1020A000692F70E018C0FA01E60FF71FE770F070B3
:1020B000DF01A958BD4F2C91E158FD4F9081DA0105
:1020C000A957BD4FF801E40FF51F8081821B8927B6
:1020D0008C934F5F5F4F4C175D072CF38AE593E0BD
:1020E00067E872E003C08AE593E0B801432F0E94DD
:1020F000CD15DF91CF911F910F910895209174021A
:10210000222319F02A3F01F518C0809139019091DE
:102110003A0166E040E00E943D10E0914E01F091EE
:102120004F01309759F18091390190913A01099509
:1021300090933A018093390108958AE492E066E031
:102140004AEF0E943D10089580913B01821731F4BF
:1021500080917502885F8093750204C020933B01D3
:102160001092750240917502822F90E0840F911DAC
:10217000420F805B9E4F68E00E943D1008952F92B1
:102180003F924F925F926F927F928F929F92AF9207
:10219000BF92CF92DF92EF92FF920F931F93DF9344
:1021A000CF93CDB7DEB766970FB6F894DEBF0FBEFC
:1021B000CDBF6624772468E0462E512CD1C0FC01A7
:1021C000E20FF31FE859FF4FE491A1E0B0E0AC0F3C
:1021D000BD1FA80FB91FEC9301968630910579F7C2
:1021E00080E090E0FC01E157FD4FE081F0E0EE5629
:1021F000FF4FE491ADE0B0E0AC0FBD1FA80FB91FD9
:10220000EC9301968A30910569F7AA88CF842981D9
:102210002A2530E04C2D477050E09E88B988C201D5
:10222000841B950B190102C0220C331C8A95E2F71E
:10223000C10102C0359527954A95E2F7822B89198D
:102240008B258F83EE84DD842A812E2530E04D2D71
:10225000477050E0AC89C201841B950BB90102C0E4
:10226000660F771F8A95E2F7CB0102C03595279557
:102270004A95E2F7822B8A198A278887EB892B8176
:102280002E2730E00D89077010E0B201601B710B42
:10229000C901062E02C0880F991F0A94E2F7002E8A
:1022A00002C0359527950A94E2F7822B8C198D256B
:1022B00089872C812B2530E04A2F477050E0D88841
:1022C000C201841B950B190102C0220C331C8A9594
:1022D000E2F7C10102C0359527954A95E2F7822BB6
:1022E0008D198C258A878D81E826FF24E770F0E020
:1022F000C2018E1B9F0B970102C0220F331F8A95CC
:10230000E2F7C90102C0F594E794EA95E2F78E2955
:102310008D198B258B878E81A827B0E0CD0102C057
:10232000880F991F6A95E2F7BC0102C0B595A79581
:102330000A95E2F76A2B6A1969256C87CE01079620
:1023400069E972E046E050E00E94A205009799F02A
:1023500083940894611C711C97E06916710459F00C
:10236000862C80E090E09301220F331F260D371D4D
:10237000220F331F24CF282D30E02F5F3F4F809155
:102380009D02522F4427FA01E80FF11DEE56FF4F30
:1023900094912F5F3F4F80919202322F2227F901B3
:1023A000E80FF11DEE56FF4FE491E927E093770225
:1023B00080919B02FA01E80FF11DEE56FF4F9491B8
:1023C00080919402F901E80FF11DEE56FF4FE49160
:1023D000E927E093780280919E02FA01E80FF11D4F
:1023E000EE56FF4F949180919602F901E80FF11D8E
:1023F000EE56FF4FE491E927E0937902809199022C
:10240000FA01E80FF11DEE56FF4F94918091910271
:10241000F901E80FF11DEE56FF4FE491E927E09333
:102420007A0280919A02FA01E80FF11DEE56FF4FF1
:10243000949180919302F901E80FF11DEE56FF4F40
:10244000E491E927E0937B0280919C02FA01E80F76
:10245000F11DEE56FF4F949180919802F901E80F1B
:10246000F11DEE56FF4FE491E927E0937C02809145
:102470008F02FA01E80FF11DEE56FF4F9491809103
:102480009502F901E80FF11DEE56FF4FE491E9279F
:10249000E0937D0280919002FA01E80FF11DEE5663
:1024A000FF4F949180919702F901E80FF11DEE56CC
:1024B000FF4FE491E927E0937E0280919902FA01AF
:1024C000E80FF11DEE56FF4F949180919002F901B3
:1024D000E80FF11DEE56FF4FE491E927E0937F02EC
:1024E00080919E02FA01E80FF11DEE56FF4F949184
:1024F00080919302F901E80FF11DEE56FF4FE49130
:10250000E927E093800280919C02FA01E80FF11D17
:10251000EE56FF4F949180918F02F901E80FF11D63
:10252000EE56FF4FE491E927E093810280919B02F0
:10253000FA01E80FF11DEE56FF4F94918091980239
:10254000F901E80FF11DEE56FF4FE491E927E09302
:10255000820280919D02FA01E80FF11DEE56FF4FB5
:10256000949180919602F901E80FF11DEE56FF4F0C
:10257000E491E927E093830280919A02FA01E80F3F
:10258000F11DEE56FF4F949180919702F901E80FEB
:10259000F11DEE56FF4FE491E927E093840280910C
:1025A0009202FA01E80FF11DEE56FF4F94918091CF
:1025B0009402F901E80FF11DEE56FF4FE491E9276F
:1025C000E093850280919102480F511D4E565F4F56
:1025D000FA01949180919502280F311D2E563F4F9C
:1025E000F901849189278093860266960FB6F89444
:1025F000DEBF0FBECDBFCF91DF911F910F91FF9036
:10260000EF90DF90CF90BF90AF909F908F907F9092
:102610006F905F904F903F902F900895CF92DF92F0
:10262000EF92FF920F931F93CF93DF938C01813032
:10263000910539F48AE593E00E945C158093740259
:102640007BC0823091050CF477C08AE593E00E944C
:102650005C15E82EF82EF394CC24C1E0D0E0DF2CFA
:10266000DA948AE593E00E945C15482F80EFE81623
:1026700021F4453511F410927602809140028A3A95
:10268000B9F480917602882399F08D2D90E0FC01B9
:10269000E770F070DF01A158BD4F2C91E958FD4F54
:1026A0003081805B9E4F2427230FFC01208305C0CF
:1026B000ED2DF0E0E05BFE4F4083F0E5FF1611F4F6
:1026C000CC24C3942196F394C017D10744F2E0912F
:1026D0004C01F0914D01309721F0602F61508E2D0B
:1026E0000995CC2049F120E430E049E450E0FA01BA
:1026F000E21BF30BD901A05BBE4F8C91E157FD4F5C
:1027000080832F5F3F4F2A34310589F74FE450E033
:10271000FA01E21BF30BD901A05BBE4F8C91E75687
:10272000FD4F80832F5F3F4F2035310589F70E9491
:10273000BF1081E080937602DF91CF911F910F91BE
:10274000FF90EF90DF90CF9008951092A502449AE9
:10275000459AE9EBF0E080818E7F808380818D7FD8
:10276000808388E48093B80085E48093BC0008955A
:10277000880F8093BA000895482F613210F081E0ED
:1027800008958091A502843011F082E0089560934D
:10279000EE02ADECB2E0842F9C01F90102C0819100
:1027A0008D938E2F841B8617D0F380E0089590932D
:1027B000AA028093A90208959093A8028093A70289
:1027C00008951F920F920FB60F9211242F933F93EB
:1027D0004F935F936F937F938F939F93AF93BF9329
:1027E000EF93FF938091B90090E0887F90708036DE
:1027F000910509F4DCC081369105CCF5883291054C
:1028000009F47BC089329105B4F48031910509F453
:102810006FC0813191053CF4009709F431C10897EC
:1028200009F039C165C08831910509F466C0809707
:1028300009F031C17DC08034910509F49FC0813415
:10284000910544F48033910509F47DC0C89709F0DF
:1028500022C184C08035910509F484C08835910572
:1028600009F491C08834910509F015C198C08839E0
:10287000910509F4FDC089399105ECF4883791057B
:1028800009F495C0893791054CF48836910509F40F
:102890008EC08037910509F0FEC089C08838910547
:1028A00009F4E6C08039910509F487C080389105A4
:1028B00009F0F1C082C0803B910509F4B0C0813BB2
:1028C00091054CF4803A910509F489C0883A910544
:1028D00009F0E1C0A4C0803C910509F4CDC0883C5A
:1028E000910509F4C9C0883B910509F0D4C0ACC07A
:1028F0008091A6028093BB00B9C09091CB028091D9
:10290000CC02981768F49091CB02E92FF0E0E555DE
:10291000FD4F80818093BB009F5F9093CB02A6C048
:1029200085ED8093BC008091BC0084FDFCCFB1C0DC
:1029300080E28093100385ED8093BC008091BC0001
:1029400084FDFCCFA6C080E38093100385ED8093C7
:10295000BC008091BC0084FDFCCF9BC088E38093C9
:1029600010038AC08091CB029091BB00E82FF0E069
:10297000E555FD4F90838F5F8093CB029091CB0202
:102980008091CC0271C08091CB029091BB00E82F66
:10299000F0E0E555FD4F90838F5F8093CB0285ED8E
:1029A0008093BC008091BC0084FDFCCF72C083E0AA
:1029B0008093A50210920F0359C080910F038032BB
:1029C00008F056C080910F039091BB00E82FF0E013
:1029D000E151FD4F90838F5F80930F0347C080913B
:1029E0000F03803230F4E0910F03F0E0E151FD4F2E
:1029F000108285ED8093BC008091BC0084FDFCCFEB
:102A00001092A50260910F03E091A902F091AA0231
:102A10008FEE92E070E0099510920F032DC084E0D4
:102A20008093A5021092ED021092EE02E091A702AF
:102A3000F091A80209958091EE02882329F481E0A3
:102A40008093EE021092CD029091ED02E92FF0E01A
:102A5000E353FD4F80818093BB009F5F9093ED0215
:102A60009091ED028091EE02981710F485EC01C070
:102A700085E88093BC000FC085EC8093BC0009C042
:102A80001092100385ED8093BC008091BC0084FD02
:102A9000FCCF1092A502FF91EF91BF91AF919F9152
:102AA0008F917F916F915F914F913F912F910F90F7
:102AB0000FBE0F901F9018959091310380913203B3
:102AC000981710F080E00895E92FF0E0EF5EFC4FDA
:102AD00080819F5F909331030895AC01209158034A
:102AE0003091590321153105E1F090913103809126
:102AF00032039817B0F090E008C0FA01EA0FFB1F0C
:102B00008081AF5EBC4F8C939F5FA92FB0E0A6176A
:102B1000B7079CF31092310360933203CB01F901A4
:102B200009950895E0915603F0915703309729F0E5
:102B3000109253031092540309950895709359030A
:102B40006093580308957093570360935603089554
:102B50000895DF93CF930F92CDB7DEB7698380914D
:102B60005503882389F080915403803290F480913A
:102B70005303E82FF0E0ED5CFC4F60838F5F8093A0
:102B800053038093540305C0CE01019661E00E9477
:102B9000BC130F90CF91DF910895EF92FF920F93A6
:102BA0001F93CF93DF937C01042F809155038823DB
:102BB00059F0EB0110E005C0C70169910E94A91509
:102BC0001F5F1017C8F304C0CB01642F0E94BC1311
:102BD000DF91CF911F910F91FF90EF900895109288
:102BE00031031092320310925303109254030E9447
:102BF000A51308950F931F938C01862F0E94B8137D
:102C000082E995E10E94DC138DE695E10E94D713DD
:102C1000C8010E94EF151F910F9108950E94FA15A7
:102C200008952F923F924F925F926F927F928F9270
:102C30009F92AF92BF92CF92DF92EF92FF920F934B
:102C40001F93DF93CF93CDB7DEB73B014C01190142
:102C50002A016D897E898F89988D6A197B098C0973
:102C60009D09621A730A840A950AA40193010E94BD
:102C70006D19E218F30804091509A80197010E94CB
:102C80008C192A0D3B1D4C1D5D1DB901CA01CF9148
:102C9000DF911F910F91FF90EF90DF90CF90BF9049
:102CA000AF909F908F907F906F905F904F903F90EC
:102CB0002F9008951F920F920FB60F9211242F9309
:102CC0003F934F935F936F937F938F939F93AF93B4
:102CD000BF9320915F033091600340916103509155
:102CE000620370916303DA01C9010296A11DB11D4F
:102CF000672F6A5F6D3730F06D57DA01C9010396AF
:102D0000A11DB11D6093630380935F0390936003E3
:102D1000A0936103B093620380915B0390915C0385
:102D2000A0915D03B0915E030196A11DB11D80933A
:102D30005B0390935C03A0935D03B0935E03BF912C
:102D4000AF919F918F917F916F915F914F913F9143
:102D50002F910F900FBE0F901F9018958FB7F8947A
:102D600020915F03309160034091610350916203B1
:102D70008FBFB901CA0108959B01AC017FB7F894D8
:102D800080915B0390915C03A0915D03B0915E0321
:102D900066B5A89B05C06F3F19F00196A11DB11D36
:102DA0007FBFBA2FA92F982F8827860F911DA11DAD
:102DB000B11D63E0880F991FAA1FBB1F6A95D1F749
:102DC000BC012DC0FFB7F89480915B0390915C0328
:102DD000A0915D03B0915E03E6B5A89B05C0EF3FEF
:102DE00019F00196A11DB11DFFBFBA2FA92F982F71
:102DF00088278E0F911DA11DB11DE3E0880F991F3B
:102E0000AA1FBB1FEA95D1F7861B970B885E9340DC
:102E1000C8F2215030404040504068517C4F21154D
:102E200031054105510571F60895019739F0019773
:102E300029F0880F991F01970197F1F70895789469
:102E400084B5826084BD84B5816084BD85B58260AF
:102E500085BD85B5816085BDEEE6F0E0808181604D
:102E60008083E1E8F0E080818260808380818160FE
:102E70008083E0E8F0E0808181608083E1EBF0E036
:102E8000808184608083E0EBF0E0808181608083DA
:102E9000EAE7F0E0808184608083808182608083C3
:102EA0008081816080838081806880831092C100EE
:102EB0000895482F50E0CA018C53954FFC0124918E
:102EC0004055554FFA0184918823C1F0E82FF0E076
:102ED000EE0FFF1FEE56F54FA591B491662341F416
:102EE0009FB7F8948C91209582238C939FBF08956F
:102EF0009FB7F8948C91822B8C939FBF0895482F95
:102F000050E0CA018852954FFC012491CA018C53AC
:102F1000954FFC0134914055554FFA0194919923F6
:102F200009F440C0222331F1233021F48091800044
:102F30008F7705C0243031F4809180008F7D80939D
:102F4000800018C0213019F484B58F7704C0223076
:102F500021F484B58F7D84BD0DC0263021F480918D
:102F6000B0008F7705C0273029F48091B0008F7DA5
:102F70008093B000E92FF0E0EE0FFF1FE456F54F0D
:102F8000A591B491662341F49FB7F8948C91309544
:102F900083238C939FBF08959FB7F8948C91832BC4
:102FA0008C939FBF0895682F70E0CB018852954F96
:102FB000FC012491CB018C53954FFC014491605549
:102FC000754FFB019491992319F420E030E038C04B
:102FD000222331F1233021F4809180008F7705C0C6
:102FE000243031F4809180008F7D8093800018C060
:102FF000213019F484B58F7704C0223021F484B5D0
:103000008F7D84BD0DC0263021F48091B0008F7774
:1030100005C0273029F48091B0008F7D8093B000E7
:10302000892F90E0880F991F8A55954FFC01A59133
:10303000B4918C9120E030E0842311F021E030E065
:10304000C90108955058BB27AA270ED008C1F9D04E
:1030500030F0FED020F031F49F3F11F41EF4EEC0AA
:103060000EF4E095E7FBE4C0E92F0AD180F3BA172C
:10307000620773078407950718F071F49EF522C163
:103080000EF4E0950B2EBA2FA02D0B01B901900183
:103090000C01CA01A0011124FF27591B99F0593FC7
:1030A00050F4503E68F11A16F040A22F232F342F0F
:1030B0004427585FF3CF469537952795A795F0405D
:1030C0005395C9F77EF41F16BA0B620B730B840B72
:1030D000BAF09150A1F0FF0FBB1F661F771F881F2A
:1030E000C2F70EC0BA0F621F731F841F48F4879582
:1030F00077956795B795F7959E3F08F0B3CF939571
:10310000880F08F09927EE0F9795879508956CD052
:1031100008F481E00895BCD088F09F5790F0B92F53
:103120009927B751A0F0D1F0660F771F881F991F1C
:103130001AF0BA95C9F712C0B13081F0C3D0B1E02E
:103140000895C0C0672F782F8827B85F39F0B93F3E
:10315000CCF3869577956795B395D9F73EF490951E
:103160008095709561957F4F8F4F9F4F0895E8949C
:1031700009C097FB3EF490958095709561957F4FBF
:103180008F4F9F4F9923A9F0F92F96E9BB2793956D
:10319000F695879577956795B795F111F8CFFAF47D
:1031A000BB0F11F460FF1BC06F5F7F4F8F4F9F4FAE
:1031B00016C0882311F096E911C0772321F09EE80C
:1031C000872F762F05C0662371F096E8862F70E072
:1031D00060E02AF09A95660F771F881FDAF7880F4C
:1031E0009695879597F90895990F0008550FAA0BA2
:1031F000E0E8FEEF16161706E807F907C0F012160A
:103200001306E407F50798F0621B730B840B950B0C
:1032100039F40A2661F0232B242B252B21F4089561
:103220000A2609F4A140A6958FEF811D811D0895FE
:1032300097F99F6780E870E060E008959FEF80EC69
:10324000089500240A94161617061806090608950C
:1032500000240A9412161306140605060895092E72
:103260000394000C11F4882352F0BB0F40F4BF2BE1
:1032700011F460FF04C06F5F7F4F8F4F9F4F089521
:1032800057FD9058440F551F59F05F3F71F0479517
:10329000880F97FB991F61F09F3F79F087950895FC
:1032A000121613061406551FF2CF4695F1DF08C01B
:1032B000161617061806991FF1CF86957105610538
:1032C00008940895E894BB2766277727CB0197F9E0
:1032D00008958ADF08F48FEF0895629FD001739FED
:1032E000F001829FE00DF11D649FE00DF11D929FA2
:1032F000F00D839FF00D749FF00D659FF00D9927E1
:10330000729FB00DE11DF91F639FB00DE11DF91F04
:10331000BD01CF011124089597FB092E05260ED07B
:1033200057FD04D014D00AD0001C38F450954095B5
:10333000309521953F4F4F4F5F4F0895F6F7909589
:103340008095709561957F4F8F4F9F4F0895A1E2B3
:103350001A2EAA1BBB1BFD010DC0AA1FBB1FEE1F0F
:10336000FF1FA217B307E407F50720F0A21BB30B5A
:10337000E40BF50B661F771F881F991F1A9469F7D6
:1033800060957095809590959B01AC01BD01CF0132
:103390000895EE0FFF1F0590F491E02D0994F89425
:0233A000FFCF5D
:1033A2000143000100014400010300000000014D3F
:1033B200000001014F00FFFF030000000143000075
:1033C2005A5A5A5A5AFC047EFC047EFC047EFC04BF
:1033D2007E0000000009000A009F02FF0145005A1A
:0C33E2005A5A5A5A5A0000A42001010057
:00000001FF
